{"abi":[{"type":"constructor","inputs":[{"name":"_asset","type":"address","internalType":"address"},{"name":"_positionManager","type":"address","internalType":"address"},{"name":"_flashLender","type":"address","internalType":"address"}],"stateMutability":"nonpayable"},{"type":"receive","stateMutability":"payable"},{"type":"function","name":"asset","inputs":[],"outputs":[{"name":"","type":"address","internalType":"contract IERC20"}],"stateMutability":"view"},{"type":"function","name":"coverDebt","inputs":[],"outputs":[],"stateMutability":"nonpayable"},{"type":"function","name":"deposit","inputs":[{"name":"amount","type":"uint256","internalType":"uint256"}],"outputs":[],"stateMutability":"nonpayable"},{"type":"function","name":"flashLender","inputs":[],"outputs":[{"name":"","type":"address","internalType":"contract FlashLender"}],"stateMutability":"view"},{"type":"function","name":"onFlashLoan","inputs":[{"name":"","type":"address","internalType":"address"},{"name":"_loanToken","type":"address","internalType":"address"},{"name":"_loanAmount","type":"uint256","internalType":"uint256"},{"name":"","type":"uint256","internalType":"uint256"},{"name":"","type":"bytes","internalType":"bytes"}],"outputs":[{"name":"","type":"bytes32","internalType":"bytes32"}],"stateMutability":"nonpayable"},{"type":"function","name":"owner","inputs":[],"outputs":[{"name":"","type":"address","internalType":"address"}],"stateMutability":"view"},{"type":"function","name":"pay","inputs":[{"name":"amount","type":"uint256","internalType":"uint256"}],"outputs":[],"stateMutability":"nonpayable"},{"type":"function","name":"positionManager","inputs":[],"outputs":[{"name":"","type":"address","internalType":"contract INonfungiblePositionManager"}],"stateMutability":"view"},{"type":"function","name":"react","inputs":[{"name":"","type":"uint256","internalType":"uint256"},{"name":"","type":"address","internalType":"address"},{"name":"","type":"uint256","internalType":"uint256"},{"name":"","type":"uint256","internalType":"uint256"},{"name":"","type":"uint256","internalType":"uint256"},{"name":"","type":"uint256","internalType":"uint256"},{"name":"data","type":"bytes","internalType":"bytes"},{"name":"","type":"uint256","internalType":"uint256"},{"name":"","type":"uint256","internalType":"uint256"}],"outputs":[],"stateMutability":"nonpayable"},{"type":"function","name":"shares","inputs":[{"name":"","type":"address","internalType":"address"}],"outputs":[{"name":"","type":"uint256","internalType":"uint256"}],"stateMutability":"view"},{"type":"function","name":"subscribeToPool","inputs":[{"name":"poolAddress","type":"address","internalType":"address"}],"outputs":[],"stateMutability":"nonpayable"},{"type":"function","name":"totalAssets","inputs":[],"outputs":[{"name":"","type":"uint256","internalType":"uint256"}],"stateMutability":"view"},{"type":"function","name":"totalShares","inputs":[],"outputs":[{"name":"","type":"uint256","internalType":"uint256"}],"stateMutability":"view"},{"type":"function","name":"uniswapV3MintCallback","inputs":[{"name":"amount0Owed","type":"uint256","internalType":"uint256"},{"name":"amount1Owed","type":"uint256","internalType":"uint256"},{"name":"","type":"bytes","internalType":"bytes"}],"outputs":[],"stateMutability":"nonpayable"},{"type":"function","name":"withdraw","inputs":[{"name":"_shares","type":"uint256","internalType":"uint256"}],"outputs":[],"stateMutability":"nonpayable"},{"type":"event","name":"Callback","inputs":[{"name":"chain_id","type":"uint256","indexed":true,"internalType":"uint256"},{"name":"_contract","type":"address","indexed":true,"internalType":"address"},{"name":"gas_limit","type":"uint64","indexed":true,"internalType":"uint64"},{"name":"payload","type":"bytes","indexed":false,"internalType":"bytes"}],"anonymous":false},{"type":"event","name":"Deposit","inputs":[{"name":"user","type":"address","indexed":true,"internalType":"address"},{"name":"shares","type":"uint256","indexed":false,"internalType":"uint256"},{"name":"amount","type":"uint256","indexed":false,"internalType":"uint256"}],"anonymous":false},{"type":"event","name":"JitStrategyExecuted","inputs":[{"name":"profit","type":"uint256","indexed":false,"internalType":"uint256"}],"anonymous":false},{"type":"event","name":"Withdraw","inputs":[{"name":"user","type":"address","indexed":true,"internalType":"address"},{"name":"shares","type":"uint256","indexed":false,"internalType":"uint256"},{"name":"amount","type":"uint256","indexed":false,"internalType":"uint256"}],"anonymous":false},{"type":"error","name":"SafeERC20FailedOperation","inputs":[{"name":"token","type":"address","internalType":"address"}]}],"bytecode":{"object":"0x60e0604052346100c95761001a6100146101aa565b9161028f565b6100226100ce565b6138bc6103b68239608051818181610360015281816109aa015281816114e10152818161160f015281816116ca01528181611a1001528181611e73015281816124c30152612f59015260a05181818161056f015281816116fb01528181611777015281816117de01528181611a7e01528181611bde0152611cae015260c0518181816106c0015281816114a201528181611da301528181611e390152612a8801526138bc90f35b6100d4565b60405190565b5f80fd5b601f801991011690565b634e487b7160e01b5f52604160045260245ffd5b90610100906100d8565b810190811060018060401b0382111761011857604052565b6100e2565b906101306101296100ce565b92836100f6565b565b5f80fd5b60018060a01b031690565b61014a90610136565b90565b61015681610141565b0361015d57565b5f80fd5b9050519061016e8261014d565b565b90916060828403126101a5576101a261018b845f8501610161565b936101998160208601610161565b93604001610161565b90565b610132565b6101c8613c72803803806101bd8161011d565b928339810190610170565b909192565b90565b6101e46101df6101e992610136565b6101cd565b610136565b90565b6101f5906101d0565b90565b610201906101ec565b90565b61020d906101d0565b90565b61021990610204565b90565b610225906101d0565b90565b6102319061021c565b90565b5f1b90565b9061024a60018060a01b0391610234565b9181191691161790565b61025d906101d0565b90565b61026990610254565b90565b90565b9061028461027f61028b92610260565b61026c565b8254610239565b9055565b6102b892916102a86102b0926102a36102c8565b6101f8565b608052610210565b60a052610228565b60c0526102c633600861026f565b565b6102d061038f565b565b6102db906101d0565b90565b6102e7906102d2565b90565b6102f3906101d0565b90565b6102ff906102ea565b90565b61031661031162ffffff6102de565b6102f6565b90565b610322906102ea565b90565b90565b9061033d61033861034492610319565b610325565b8254610239565b9055565b610351906101d0565b90565b61035d90610348565b90565b61036990610348565b90565b90565b9061038461037f61038b92610360565b61036c565b8254610239565b9055565b6103b36103ad61039d610302565b6103a8816001610328565b610354565b5f61036f565b56fe60806040526004361015610015575b366108f557005b61001f5f3561010e565b806301e1d1141461010957806323e30c8b146101045780632e1a7d4d146100ff57806338d52e0f146100fa5780633a98ef39146100f55780634190e48f146100f0578063791b98bc146100eb5780637a90b990146100e65780638da5cb5b146100e1578063a7714458146100dc578063b1ddd312146100d7578063b6b55f25146100d2578063c290d691146100cd578063ce7c2ac2146100c85763d34879970361000e576108be565b610837565b6107c9565b610796565b610763565b610710565b610689565b6105f4565b6105bf565b61052d565b61044c565b6103db565b61032b565b6102cc565b610156565b60e01c90565b60405190565b5f80fd5b5f80fd5b5f91031261012c57565b61011e565b90565b61013d90610131565b9052565b9190610154905f60208501940190610134565b565b3461018657610166366004610122565b610182610171610997565b610179610114565b91829182610141565b0390f35b61011a565b5f80fd5b60018060a01b031690565b6101a39061018f565b90565b6101af8161019a565b036101b657565b5f80fd5b905035906101c7826101a6565b565b6101d281610131565b036101d957565b5f80fd5b905035906101ea826101c9565b565b5f80fd5b5f80fd5b5f80fd5b909182601f830112156102325781359167ffffffffffffffff831161022d57602001926001830284011161022857565b6101f4565b6101f0565b6101ec565b91909160a0818403126102a257610250835f83016101ba565b9261025e81602084016101ba565b9261026c82604085016101dd565b9261027a83606083016101dd565b92608082013567ffffffffffffffff811161029d5761029992016101f8565b9091565b61018b565b61011e565b90565b6102b3906102a7565b9052565b91906102ca905f602085019401906102aa565b565b34610303576102ff6102ee6102e2366004610237565b94939093929192611484565b6102f6610114565b918291826102b7565b0390f35b61011a565b906020828203126103215761031e915f016101dd565b90565b61011e565b5f0190565b346103595761034361033e366004610308565b612423565b61034b610114565b8061035581610326565b0390f35b61011a565b7f000000000000000000000000000000000000000000000000000000000000000090565b90565b61039961039461039e9261018f565b610382565b61018f565b90565b6103aa90610385565b90565b6103b6906103a1565b90565b6103c2906103ad565b9052565b91906103d9905f602085019401906103b9565b565b3461040b576103eb366004610122565b6104076103f661035e565b6103fe610114565b918291826103c6565b0390f35b61011a565b1c90565b90565b61042790600861042c9302610410565b610414565b90565b9061043a9154610417565b90565b61044960035f9061042f565b90565b3461047c5761045c366004610122565b61047861046761043d565b61046f610114565b91829182610141565b0390f35b61011a565b919091610120818403126105285761049b835f83016101dd565b926104a981602084016101ba565b926104b782604085016101dd565b926104c583606083016101dd565b926104d381608084016101dd565b926104e18260a085016101dd565b9260c08101359167ffffffffffffffff831161052357610506846105209484016101f8565b9390946105168160e086016101dd565b93610100016101dd565b90565b61018b565b61011e565b3461056857610552610540366004610481565b98979097969196959295949394612b50565b61055a610114565b8061056481610326565b0390f35b61011a565b7f000000000000000000000000000000000000000000000000000000000000000090565b61059a906103a1565b90565b6105a690610591565b9052565b91906105bd905f6020850194019061059d565b565b346105ef576105cf366004610122565b6105eb6105da61056d565b6105e2610114565b918291826105aa565b0390f35b61011a565b3461062257610604366004610122565b61060c612bc0565b610614610114565b8061061e81610326565b0390f35b61011a565b60018060a01b031690565b6106429060086106479302610410565b610627565b90565b906106559154610632565b90565b61066460085f9061064a565b90565b6106709061019a565b9052565b9190610687905f60208501940190610667565b565b346106b957610699366004610122565b6106b56106a4610658565b6106ac610114565b91829182610674565b0390f35b61011a565b7f000000000000000000000000000000000000000000000000000000000000000090565b6106eb906103a1565b90565b6106f7906106e2565b9052565b919061070e905f602085019401906106ee565b565b3461074057610720366004610122565b61073c61072b6106be565b610733610114565b918291826106fb565b0390f35b61011a565b9060208282031261075e5761075b915f016101ba565b90565b61011e565b346107915761077b610776366004610745565b612e5d565b610783610114565b8061078d81610326565b0390f35b61011a565b346107c4576107ae6107a9366004610308565b612eea565b6107b6610114565b806107c081610326565b0390f35b61011a565b346107f7576107e16107dc366004610308565b613111565b6107e9610114565b806107f381610326565b0390f35b61011a565b610805906103a1565b90565b90610812906107fc565b5f5260205260405f2090565b6108349061082f6002915f92610808565b61042f565b90565b346108675761086361085261084d366004610745565b61081e565b61085a610114565b91829182610141565b0390f35b61011a565b916060838303126108b957610883825f85016101dd565b9261089183602083016101dd565b92604082013567ffffffffffffffff81116108b4576108b092016101f8565b9091565b61018b565b61011e565b346108f0576108da6108d136600461086c565b9291909161311c565b6108e2610114565b806108ec81610326565b0390f35b61011a565b5f80fd5b5f90565b610906906103a1565b90565b5f80fd5b601f801991011690565b634e487b7160e01b5f52604160045260245ffd5b906109359061090d565b810190811067ffffffffffffffff82111761094f57604052565b610917565b60e01b90565b90505190610967826101c9565b565b906020828203126109825761097f915f0161095a565b90565b61011e565b61098f610114565b3d5f823e3d90fd5b61099f6108f9565b50610a0060206109ce7f00000000000000000000000000000000000000000000000000000000000000006103ad565b6370a08231906109f56109e0306108fd565b926109e9610114565b95869485938493610954565b835260048301610674565b03915afa908115610a44575f91610a16575b5090565b610a37915060203d8111610a3d575b610a2f818361092b565b810190610969565b5f610a12565b503d610a25565b610987565b5f90565b60209181520190565b5f7f43616c6c6572206973206e6f742074686520666c617368206c656e6465720000910152565b610a8a601e602092610a4d565b610a9381610a56565b0190565b610aac9060208101905f818303910152610a7d565b90565b15610ab657565b610abe610114565b62461bcd60e51b815280610ad460048201610a97565b0390fd5b5f1c90565b610ae9610aee91610ad8565b610627565b90565b610afb9054610add565b90565b90610b089061019a565b9052565b610b18610b1d91610ad8565b610414565b90565b610b2a9054610b0c565b90565b90610b3790610131565b9052565b60020b90565b610b4d610b5291610ad8565b610b3b565b90565b610b5f9054610b41565b90565b60020b90565b90610b7290610b62565b9052565b60181c90565b610b88610b8d91610b76565b610b3b565b90565b610b9a9054610b7c565b90565b90610bb0610ba9610114565b928361092b565b565b610bbc60a0610b9d565b90565b90610c3d610c346003610bd0610bb2565b94610be7610bdf5f8301610af1565b5f8801610afe565b610bff610bf660018301610af1565b60208801610afe565b610c17610c0e60028301610b20565b60408801610b2d565b610c2e610c25838301610b55565b60608801610b68565b01610b90565b60808401610b68565b565b610c4890610bbf565b90565b610c55905161019a565b90565b610c6190610385565b90565b610c6d90610c58565b90565b610c79906103a1565b90565b90505190610c89826101a6565b565b90602082820312610ca457610ca1915f01610c7c565b90565b61011e565b610cb290610385565b90565b610cbe90610ca9565b90565b67ffffffffffffffff8111610cdf57610cdb60209161090d565b0190565b610917565b90610cf6610cf183610cc1565b610b9d565b918252565b60207f6f616e2072656365697665643a00000000000000000000000000000000000000917f5661756c7420574554482062616c616e636520616674657220666c617368206c5f8201520152565b610d52602d610ce4565b90610d5f60208301610cfb565b565b610d69610d48565b90565b151590565b610d7a81610d6c565b03610d8157565b5f80fd5b90505190610d9282610d71565b565b90602082820312610dad57610daa915f01610d85565b90565b61011e565b916020610dd3929493610dcc60408201965f830190610667565b0190610134565b565b62ffffff1690565b610de681610dd5565b03610ded57565b5f80fd5b90505190610dfe82610ddd565b565b90602082820312610e1957610e16915f01610df1565b90565b61011e565b610e289051610b62565b90565b610e36610160610b9d565b90565b90610e4390610dd5565b9052565b90565b610e5e610e59610e6392610e47565b610382565b610131565b90565b6fffffffffffffffffffffffffffffffff1690565b610e8481610e66565b03610e8b57565b5f80fd5b90505190610e9c82610e7b565b565b608081830312610edf57610eb4825f830161095a565b92610edc610ec58460208501610e8f565b93610ed3816040860161095a565b9360600161095a565b90565b61011e565b610eed9061019a565b9052565b610efa90610dd5565b9052565b610f0790610b62565b9052565b610f1490610131565b9052565b9061014080610fe193610f315f8201515f860190610ee4565b610f4360208201516020860190610ee4565b610f5560408201516040860190610ef1565b610f6760608201516060860190610efe565b610f7960808201516080860190610efe565b610f8b60a082015160a0860190610f0b565b610f9d60c082015160c0860190610f0b565b610faf60e082015160e0860190610f0b565b610fc3610100820151610100860190610f0b565b610fd7610120820151610120860190610ee4565b0151910190610f0b565b565b9190610ff7905f6101608501940190610f18565b565b5f1b90565b9061100a5f1991610ff9565b9181191691161790565b61102861102361102d92610131565b610382565b610131565b90565b90565b9061104861104361104f92611014565b611030565b8254610ffe565b9055565b9061106e6fffffffffffffffffffffffffffffffff91610ff9565b9181191691161790565b61108c61108761109192610e66565b610382565b610e66565b90565b90565b906110ac6110a76110b392611078565b611094565b8254611053565b9055565b60207f206c69717569646974793a000000000000000000000000000000000000000000917f5661756c7420574554482062616c616e6365206166746572206d696e74696e675f8201520152565b61110e602b610ce4565b9061111b602083016110b7565b565b611125611104565b90565b90565b61113f61113a61114492611128565b610382565b610131565b90565b6fffffffffffffffffffffffffffffffff1690565b61116861116d91610ad8565b611147565b90565b61117a905461115c565b90565b61118760a0610b9d565b90565b9061119490610e66565b9052565b91906040838203126111c057806111b46111bd925f860161095a565b9360200161095a565b90565b61011e565b6111ce90610e66565b9052565b9060808061122a936111ea5f8201515f860190610f0b565b6111fc602082015160208601906111c5565b61120e60408201516040860190610f0b565b61122060608201516060860190610f0b565b0151910190610f0b565b565b919061123f905f60a085019401906111d2565b565b60207f696e67206c69717569646974793a000000000000000000000000000000000000917f5661756c7420574554482062616c616e636520616674657220646563726561735f8201520152565b611298602e610ce4565b906112a560208301611241565b565b6112af61128e565b90565b6112bc6080610b9d565b90565b90606080611305936112d75f8201515f860190610f0b565b6112e960208201516020860190610ee4565b6112fb604082015160408601906111c5565b01519101906111c5565b565b919061131a905f608085019401906112bf565b565b5f91031261132657565b61011e565b60207f72657061796d656e743a00000000000000000000000000000000000000000000917f5661756c7420574554482062616c616e6365206265666f72652066696e616c205f8201520152565b611382602a610ce4565b9061138f6020830161132b565b565b611399611378565b90565b634e487b7160e01b5f52601160045260245ffd5b6113bf6113c591939293610131565b92610131565b916113d1838202610131565b9281840414901517156113e057565b61139c565b90565b6113fc6113f7611401926113e5565b610382565b610131565b90565b634e487b7160e01b5f52601260045260245ffd5b61142461142a91610131565b91610131565b908115611435570490565b611404565b61144961144f91939293610131565b92610131565b820180921161145a57565b61139c565b61146e61147491939293610131565b92610131565b820391821161147f57565b61139c565b509350915050611492610a49565b506114d7336114d16114cb6114c67f00000000000000000000000000000000000000000000000000000000000000006106e2565b61019a565b9161019a565b14610aaf565b61153760206115057f00000000000000000000000000000000000000000000000000000000000000006103ad565b6370a082319061152c611517306108fd565b92611520610114565b95869485938493610954565b835260048301610674565b03915afa9081156122d1575f916122a3575b50916115556004610c3f565b6115686115635f8301610c4b565b610c64565b61158c602061157683610c70565b630dfe168190611584610114565b938492610954565b8252818061159c60048201610326565b03915afa90811561229e575f91612270575b50906115d460206115be83610c70565b63d21220a7906115cc610114565b938492610954565b825281806115e460048201610326565b03915afa90811561226b575f9161223d575b50916116006108f9565b506116096108f9565b506116337f00000000000000000000000000000000000000000000000000000000000000006103ad565b61164561163f8361019a565b9161019a565b145f14612235578691865b6116a2602061167061166b611666838b01610c4b565b610cb5565b6103ad565b6370a0823190611697611682306108fd565b9261168b610114565b95869485938493610954565b835260048301610674565b03915afa8015612230576116c5915f91612202575b506116c0610d61565b6132fb565b6116ee7f00000000000000000000000000000000000000000000000000000000000000006103ad565b602063095ea7b39161171f7f0000000000000000000000000000000000000000000000000000000000000000610591565b9061173d5f8995611748611731610114565b97889687958694610954565b845260048401610db2565b03925af180156121fd576121d1575b5061176961176488610cb5565b6103ad565b90602063095ea7b39261179b7f0000000000000000000000000000000000000000000000000000000000000000610591565b906117b95f85966117c46117ad610114565b98899687958694610954565b845260048401610db2565b03925af19182156121cc5761182b926121a0575b506118027f0000000000000000000000000000000000000000000000000000000000000000610591565b9460206118156388316456969895610c70565b63ddca3f4390611823610114565b958692610954565b8252818061183b60048201610326565b03915afa92831561219b575f9361216b575b508760600161185b90610e1e565b918860800161186990610e1e565b915f925f9430611878906108fd565b964298611883610e2b565b9c5f8e019061189191610afe565b60208d019061189f91610afe565b60408c01906118ad91610e39565b60608b01906118bb91610b68565b60808a01906118c991610b68565b60a08901906118d791610b2d565b60c08801906118e591610b2d565b6118ee90610e4a565b60e08701906118fc91610b2d565b61190590610e4a565b61010086019061191491610b2d565b61012085019061192391610afe565b61014084019061193291610b2d565b61193a610114565b80936119468293610954565b8252600482019061195691610fe3565b03815a6080945f91f190811561216657611987915f80929091612131575b50611980906009611033565b600a611097565b6119d960206119a76119a261199d838601610c4b565b610cb5565b6103ad565b6370a08231906119ce6119b9306108fd565b926119c2610114565b95869485938493610954565b835260048301610674565b03915afa801561212c576119fc915f916120fe575b506119f761111d565b6132fb565b611a096305f5e10061112b565b6020611a347f00000000000000000000000000000000000000000000000000000000000000006103ad565b9163a9059cbb92611a615f611a48306108fd565b9395611a6c611a55610114565b97889687958694610954565b845260048401610db2565b03925af180156120f9576120cd575b507f0000000000000000000000000000000000000000000000000000000000000000611aa690610591565b630c49ccbe90611ab66009610b20565b91611ac1600a611170565b5f5f904292611ace61117d565b965f880190611adc91610b2d565b6020870190611aea9161118a565b611af390610e4a565b6040860190611b0191610b2d565b611b0a90610e4a565b6060850190611b1891610b2d565b6080840190611b2691610b2d565b611b2e610114565b8093611b3a8293610954565b82526004820190611b4a9161122c565b03815a6040945f91f180156120c85761209b575b50611bb16020611b7f611b7a611b75838601610c4b565b610cb5565b6103ad565b6370a0823190611ba6611b91306108fd565b92611b9a610114565b95869485938493610954565b835260048301610674565b03915afa801561209657611bd4915f91612068575b50611bcf6112a7565b6132fb565b611c996040611c027f0000000000000000000000000000000000000000000000000000000000000000610591565b63fc6f786590611c8e5f611c166009610b20565b93611c7a611c23306108fd565b611c716fffffffffffffffffffffffffffffffff611c696fffffffffffffffffffffffffffffffff93611c60611c576112b2565b9b898d01610b2d565b60208b01610afe565b89890161118a565b6060870161118a565b611c82610114565b96879586948593610954565b835260048301611307565b03925af1801561206357612036575b50611cd27f0000000000000000000000000000000000000000000000000000000000000000610591565b6342966c68611ce16009610b20565b823b1561203157611d1192611d065f8094611cfa610114565b96879586948593610954565b835260048301610141565b03925af1801561202c57611d3e611d396020611d75958195611d4395612000575b5001610c4b565b610cb5565b6103ad565b6370a0823190611d6a611d55306108fd565b92611d5e610114565b95869485938493610954565b835260048301610674565b03915afa8015611ffb57611d98915f91611fcd575b50611d93611391565b6132fb565b81611ddd6020611dc77f00000000000000000000000000000000000000000000000000000000000000006106e2565b63ced72f8790611dd5610114565b938492610954565b82528180611ded60048201610326565b03915afa8015611fc857611e2d611e16611e3392611e6997611e63955f92611f98575b506113b0565b611e27670de0b6b3a76400006113e8565b90611418565b93610cb5565b92611e5d7f00000000000000000000000000000000000000000000000000000000000000006106e2565b9261143a565b9161336e565b611ec96020611e977f00000000000000000000000000000000000000000000000000000000000000006103ad565b6370a0823190611ebe611ea9306108fd565b92611eb2610114565b95869485938493610954565b835260048301610674565b03915afa908115611f93575f91611f65575b509081611ef0611eea83610131565b91610131565b11611f1c575b50507f439148f0bbc682ca079e46d6e2c2f0c1e3b820f1a291b069d8882abf8cf18dd990565b611f259161145f565b611f5b7f14af9e155f51c566931d2b22eab5494e12f8ee4e204aa2cc5f9f0174632f50fc91611f52610114565b91829182610141565b0390a15f80611ef6565b611f86915060203d8111611f8c575b611f7e818361092b565b810190610969565b5f611edb565b503d611f74565b610987565b611fba91925060203d8111611fc1575b611fb2818361092b565b810190610969565b905f611e10565b503d611fa8565b610987565b611fee915060203d8111611ff4575b611fe6818361092b565b810190610969565b5f611d8a565b503d611fdc565b610987565b61201f905f3d8111612025575b612017818361092b565b81019061131c565b5f611d32565b503d61200d565b610987565b610909565b6120569060403d811161205c575b61204e818361092b565b810190611198565b50611ca8565b503d612044565b610987565b612089915060203d811161208f575b612081818361092b565b810190610969565b5f611bc6565b503d612077565b610987565b6120bb9060403d81116120c1575b6120b3818361092b565b810190611198565b50611b5e565b503d6120a9565b610987565b6120ed9060203d81116120f2575b6120e5818361092b565b810190610d94565b611a7b565b503d6120db565b610987565b61211f915060203d8111612125575b612117818361092b565b810190610969565b5f6119ee565b503d61210d565b610987565b6119809250612157915060803d811161215f575b61214f818361092b565b810190610e9e565b505091611974565b503d612145565b610987565b61218d91935060203d8111612194575b612185818361092b565b810190610e00565b915f61184d565b503d61217b565b610987565b6121c09060203d81116121c5575b6121b8818361092b565b810190610d94565b6117d8565b503d6121ae565b610987565b6121f19060203d81116121f6575b6121e9818361092b565b810190610d94565b611757565b503d6121df565b610987565b612223915060203d8111612229575b61221b818361092b565b810190610969565b5f6116b7565b503d612211565b610987565b859187611650565b61225e915060203d8111612264575b612256818361092b565b810190610c8b565b5f6115f6565b503d61224c565b610987565b612291915060203d8111612297575b612289818361092b565b810190610c8b565b5f6115ae565b503d61227f565b610987565b6122c4915060203d81116122ca575b6122bc818361092b565b810190610969565b5f611549565b503d6122b2565b610987565b60207f6f66207368617265730000000000000000000000000000000000000000000000917f4d757374207769746864726177206120706f736974697665206e756d626572205f8201520152565b6123306029604092610a4d565b612339816122d6565b0190565b6123529060208101905f818303910152612323565b90565b1561235c57565b612364610114565b62461bcd60e51b81528061237a6004820161233d565b0390fd5b5f7f496e73756666696369656e742073686172657300000000000000000000000000910152565b6123b26013602092610a4d565b6123bb8161237e565b0190565b6123d49060208101905f8183039101526123a5565b90565b156123de57565b6123e6610114565b62461bcd60e51b8152806123fc600482016123bf565b0390fd5b91602061242192949361241a60408201965f830190610134565b0190610134565b565b61243f816124396124335f610e4a565b91610131565b11612355565b61246f61245661245160023390610808565b610b20565b61246861246284610131565b91610131565b10156123d7565b612478816133bc565b906124a18161249b61248c60023390610808565b9161249683610b20565b61145f565b90611033565b6124be6124b7826124b26003610b20565b61145f565b6003611033565b6124ea7f000000000000000000000000000000000000000000000000000000000000000033849161336e565b3390916125177ff279e6a1f5e320cca91135676d9cb6e44ca8a08c0b88342bcdb1144f6511b568926107fc565b9261252c612523610114565b92839283612400565b0390a2565b60018060a01b031690565b61254861254d91610ad8565b612531565b90565b61255a905461253c565b90565b612566906103a1565b90565b5f7f53797374656d20636f6e7472616374206f6e6c79000000000000000000000000910152565b61259d6014602092610a4d565b6125a681612569565b0190565b6125bf9060208101905f818303910152612590565b90565b156125c957565b6125d1610114565b62461bcd60e51b8152806125e7600482016125aa565b0390fd5b9061262a9998979695949392916126253361261f61261961261461260f6001612550565b61255d565b61019a565b9161019a565b146125c2565b612974565b565b90565b6126388161262c565b0361263f57565b5f80fd5b905035906126508261262f565b565b61265b8161018f565b0361266257565b5f80fd5b9050359061267382612652565b565b9050359061268282610e7b565b565b61268d81610b62565b0361269457565b5f80fd5b905035906126a582612684565b565b919060a0838203126126f8576126bf815f8501612643565b926126cd8260208301612643565b926126f56126de8460408501612666565b936126ec8160608601612675565b93608001612698565b90565b61011e565b61271161270c61271692610e47565b610382565b61262c565b90565b61272d6127286127329261262c565b610382565b610131565b90565b90565b61274c61274761275192612735565b610382565b610131565b90565b61275e60a0610b9d565b90565b90565b61277861277361277d92612761565b610382565b610131565b90565b90565b61279761279261279c92612780565b610382565b610b62565b90565b90565b6127b66127b16127bb9261279f565b610382565b610b62565b90565b906127cf60018060a01b0391610ff9565b9181191691161790565b90565b906127f16127ec6127f8926107fc565b6127d9565b82546127be565b9055565b6128069051610131565b90565b9061281762ffffff91610ff9565b9181191691161790565b61283561283061283a92610b62565b610382565b610b62565b90565b90565b9061285561285061285c92612821565b61283d565b8254612809565b9055565b60181b90565b9061287765ffffff00000091612860565b9181191691161790565b9061289661289161289d92612821565b61283d565b8254612866565b9055565b906129166080600361291c946128c45f82016128be5f8801610c4b565b906127dc565b6128dd600182016128d760208801610c4b565b906127dc565b6128f6600282016128f0604088016127fc565b90611033565b61290e82820161290860608801610e1e565b90612840565b019201610e1e565b90612881565b565b90612928916128a1565b565b60209181520190565b61293e5f809261292a565b0190565b6129646129719361295a60608401945f850190610667565b6020830190610134565b6040818303910152612933565b90565b50505050505090915061298b9250908101906126a7565b5050506129966108f9565b50816129aa6129a45f6126fd565b9161262c565b135f14612b4157506129bb90612719565b5b6129da6129d46129cf633b9aca00612738565b610131565b91610131565b10612b3f57612a835f612a7c612a737388e6a0c2ddd26feeb64f039a2c41296fcb3f5640612a6e612a6573c02aaa39b223fe8d0a0e5c4f27ead9083c756cc2612a60612a57674563918244f40000612a5262030d3f1994612a4962030d4099612a41612754565b9d8e01610afe565b60208c01610afe565b612764565b60408901610b2d565b612783565b60608601610b68565b6127a2565b60808301610b68565b600461291e565b612aac7f00000000000000000000000000000000000000000000000000000000000000006106e2565b63e0232b42612aba306108fd565b612ac76002600401610b20565b92803b15612b3a57612aec5f8094612af7612ae0610114565b97889687958694610954565b845260048401612942565b03925af18015612b3557612b09575b50565b612b28905f3d8111612b2e575b612b20818361092b565b81019061131c565b5f612b06565b503d612b16565b610987565b610909565b565b612b4b9150612719565b6129bc565b90612b629998979695949392916125eb565b565b60018060a01b031690565b612b7b612b8091610ad8565b612b64565b90565b612b8d9054612b6f565b90565b612b99906103a1565b90565b612ba5906103a1565b90565b612bb190610385565b90565b612bbd90612ba8565b90565b612c086020612bd6612bd15f612b83565b612b90565b639b6c56ec90612bfd612be830612b9c565b92612bf1610114565b95869485938493610954565b835260048301610674565b03915afa8015612c6457612c34915f91612c36575b50612c2f612c2a5f612b83565b612bb4565b6135bf565b565b612c57915060203d8111612c5d575b612c4f818361092b565b810190610969565b5f612c1d565b503d612c45565b610987565b5f7f4e6f74206f776e65720000000000000000000000000000000000000000000000910152565b612c9d6009602092610a4d565b612ca681612c69565b0190565b612cbf9060208101905f818303910152612c90565b90565b15612cc957565b612cd1610114565b62461bcd60e51b815280612ce760048201612caa565b0390fd5b612d1990612d1433612d0e612d08612d036008610af1565b61019a565b9161019a565b14612cc2565b612d97565b565b612d27612d2c91610ad8565b611014565b90565b612d3890610e4a565b9052565b9194612d84612d8e92989795612d7a60a096612d70612d959a612d6660c08a019e5f8b0190610134565b6020890190610667565b6040870190610134565b6060850190612d2f565b6080830190612d2f565b0190612d2f565b565b7fc42079f94a6350d7e6235f29174924f928cc2ac818eb64fed8004e115fbcca6790612dcb612dc66001612550565b61255d565b90635a6aced091612ddd469294612d1b565b925f5f915f95843b15612e58575f96612e0a948894612e1593612dfe610114565b9b8c9a8b998a98610954565b885260048801612d3c565b03925af18015612e5357612e27575b50565b612e46905f3d8111612e4c575b612e3e818361092b565b81019061131c565b5f612e24565b503d612e34565b610987565b610909565b612e6690612ceb565b565b5f7f4465706f73697420616d6f756e74206d75737420626520706f73697469766500910152565b612e9c601f602092610a4d565b612ea581612e68565b0190565b612ebe9060208101905f818303910152612e8f565b90565b15612ec857565b612ed0610114565b62461bcd60e51b815280612ee660048201612ea9565b0390fd5b612f0681612f00612efa5f610e4a565b91610131565b11612ec1565b612f0f81613643565b612f2c612f2582612f206003610b20565b61143a565b6003611033565b612f5481612f4e612f3f60023390610808565b91612f4983610b20565b61143a565b90611033565b612f8a7f000000000000000000000000000000000000000000000000000000000000000033612f82306108fd565b9085926136f2565b339091612fb77f90890809c654f11d6e72a28fa60149770a0d11ec6c92319d6ceb2bb0a4ea1a15926107fc565b92612fcc612fc3610114565b92839283612400565b0390a2565b612fe5612fe0612fea92610e47565b610382565b61018f565b90565b612ff690612fd1565b90565b5f7f417574686f72697a65642073656e646572206f6e6c7900000000000000000000910152565b61302d6016602092610a4d565b61303681612ff9565b0190565b61304f9060208101905f818303910152613020565b90565b1561305957565b613061610114565b62461bcd60e51b8152806130776004820161303a565b0390fd5b6130c09061309061308b5f612b83565b612b90565b6130aa6130a461309f5f612fed565b61019a565b9161019a565b1480156130c2575b6130bb90613052565b6130fd565b565b506130bb336130e96130e36130de6130d95f612b83565b612b90565b61019a565b9161019a565b1490506130b2565b6130fa90612ba8565b90565b61310f9061310a336130f1565b6135bf565b565b61311a9061307b565b565b9250905061314c602061313661313133610c64565b610c70565b630dfe168190613144610114565b938492610954565b8252818061315c60048201610326565b03915afa908115613290575f91613262575b5061319b602061318561318033610c64565b610c70565b63d21220a790613193610114565b938492610954565b825281806131ab60048201610326565b03915afa90811561325d575f9161322f575b5092806131d26131cc5f610e4a565b91610131565b11613213575b5050806131ed6131e75f610e4a565b91610131565b116131f7575b5050565b61320361320c92610cb5565b9033909161336e565b5f806131f3565b61321f61322892610cb5565b9033909161336e565b5f806131d8565b613250915060203d8111613256575b613248818361092b565b810190610c8b565b5f6131bd565b503d61323e565b610987565b613283915060203d8111613289575b61327b818361092b565b810190610c8b565b5f61316e565b503d613271565b610987565b5190565b90825f9392825e0152565b6132c36132cc6020936132d1936132ba81613295565b93848093610a4d565b95869101613299565b61090d565b0190565b929160206132f16132f99360408701908782035f8901526132a4565b940190610134565b565b9061333661333b9261332761330e610114565b938492600460208501632d839cb360e21b8152016132d5565b6020820181038252038261092b565b613742565b565b63ffffffff1690565b63ffffffff60e01b1690565b61336661336161336b9261333d565b610954565b613346565b90565b906133b56133ba936133a66004949361338d63a9059cbb919391613352565b92613396610114565b9687946020860190815201610db2565b6020820181038252038361092b565b613776565b565b6133c46108f9565b506133cf6003610b20565b6133e16133db5f610e4a565b91610131565b1461340e576133fb61340b916133f5610997565b906113b0565b6134056003610b20565b90611418565b90565b506134185f610e4a565b90565b5f7f496e73756666696369656e742066756e64730000000000000000000000000000910152565b61344f6012602092610a4d565b6134588161341b565b0190565b6134719060208101905f818303910152613442565b90565b1561347b57565b613483610114565b62461bcd60e51b8152806134996004820161345c565b0390fd5b6134a6906103a1565b90565b67ffffffffffffffff81116134c7576134c360209161090d565b0190565b610917565b906134de6134d9836134a9565b610b9d565b918252565b369037565b9061350d6134f5836134cc565b9260208061350386936134a9565b92019103906134e3565b565b606090565b3d5f1461352f576135243d6134cc565b903d5f602084013e5b565b61353761350f565b9061352d565b5f7f5472616e73666572206661696c65640000000000000000000000000000000000910152565b613571600f602092610a4d565b61357a8161353d565b0190565b6135939060208101905f818303910152613564565b90565b1561359d57565b6135a5610114565b62461bcd60e51b8152806135bb6004820161357e565b0390fd5b906135e66135cc30612b9c565b316135df6135d984610131565b91610131565b1015613474565b806135f96135f35f610e4a565b91610131565b11613603575b5050565b5f809161361261363c9461349d565b9061362461361f84610e4a565b6134e8565b90602082019151925af1613636613514565b50613596565b5f806135ff565b61364b6108f9565b50613654610997565b6136666136605f610e4a565b91610131565b14801561369d575b61369a57613689613697916136836003610b20565b906113b0565b613691610997565b90611418565b90565b90565b506136a86003610b20565b6136ba6136b45f610e4a565b91610131565b1461366e565b6040906136e96136f094969593966136df60608401985f850190610667565b6020830190610667565b0190610134565b565b60049261372c613740959361373b93946137136323b872dd92949192613352565b9361371c610114565b97889560208701908152016136c0565b6020820181038252038361092b565b613776565b565b613755906137506001613854565b613874565b565b90565b61376e61376961377392613757565b610382565b610131565b90565b905f6020916137836108f9565b5061378c6108f9565b50828151910182855af11561381f573d5f51906137b16137ab5f610e4a565b91610131565b145f1461380557506137c2816103ad565b3b6137d56137cf5f610e4a565b91610131565b145b6137de5750565b6137ea613801916103ad565b5f918291635274afe760e01b835260048301610674565b0390fd5b613818613812600161375a565b91610131565b14156137d7565b6040513d5f823e3d90fd5b6a636f6e736f6c652e6c6f6790565b5f809161384461382a565b602082519201905afa50565b5f90565b61385c613850565b5090565b634e487b7160e01b5f52605160045260245ffd5b6001036138605761388490613839565b56fea2646970667358221220acb56fcf09d523430a8f120dd67a80ecccb2eb976aa2bb10fea14e69ed80a1ed64736f6c634300081c0033","linkReferences":{}},"methodIdentifiers":{"asset()":"38d52e0f","coverDebt()":"7a90b990","deposit(uint256)":"b6b55f25","flashLender()":"a7714458","onFlashLoan(address,address,uint256,uint256,bytes)":"23e30c8b","owner()":"8da5cb5b","pay(uint256)":"c290d691","positionManager()":"791b98bc","react(uint256,address,uint256,uint256,uint256,uint256,bytes,uint256,uint256)":"4190e48f","shares(address)":"ce7c2ac2","subscribeToPool(address)":"b1ddd312","totalAssets()":"01e1d114","totalShares()":"3a98ef39","uniswapV3MintCallback(uint256,uint256,bytes)":"d3487997","withdraw(uint256)":"2e1a7d4d"},"id":47}