{"abi":[{"type":"constructor","inputs":[{"name":"_loanToken","type":"address","internalType":"address"}],"stateMutability":"nonpayable"},{"type":"function","name":"deposit","inputs":[{"name":"amount","type":"uint256","internalType":"uint256"}],"outputs":[],"stateMutability":"nonpayable"},{"type":"function","name":"flashLoan","inputs":[{"name":"receiver","type":"address","internalType":"address"},{"name":"amount","type":"uint256","internalType":"uint256"},{"name":"data","type":"bytes","internalType":"bytes"}],"outputs":[],"stateMutability":"nonpayable"},{"type":"function","name":"getFee","inputs":[],"outputs":[{"name":"","type":"uint256","internalType":"uint256"}],"stateMutability":"pure"},{"type":"function","name":"loanToken","inputs":[],"outputs":[{"name":"","type":"address","internalType":"contract IERC20"}],"stateMutability":"view"},{"type":"error","name":"SafeERC20FailedOperation","inputs":[{"name":"token","type":"address","internalType":"address"}]}],"bytecode":{"object":"0x60a06040523461005a5761001961001461011f565b610177565b61002161005f565b610d5d610186823960805181818160810152818161032c01528181610855015281816108e30152818161094f01526109da0152610d5d90f35b610065565b60405190565b5f80fd5b601f801991011690565b634e487b7160e01b5f52604160045260245ffd5b9061009190610069565b810190811060018060401b038211176100a957604052565b610073565b906100c16100ba61005f565b9283610087565b565b5f80fd5b60018060a01b031690565b6100db906100c7565b90565b6100e7816100d2565b036100ee57565b5f80fd5b905051906100ff826100de565b565b9060208282031261011a57610117915f016100f2565b90565b6100c3565b61013d610ee380380380610132816100ae565b928339810190610101565b90565b90565b61015761015261015c926100c7565b610140565b6100c7565b90565b61016890610143565b90565b6101749061015f565b90565b6101809061016b565b60805256fe60806040526004361015610013575b610316565b61001d5f3561005c565b806306d3781714610057578063b6b55f2514610052578063ced72f871461004d5763e0232b420361000e576102df565b6101de565b610189565b610107565b60e01c90565b60405190565b5f80fd5b5f80fd5b5f91031261007a57565b61006c565b7f000000000000000000000000000000000000000000000000000000000000000090565b60018060a01b031690565b90565b6100c56100c06100ca926100a3565b6100ae565b6100a3565b90565b6100d6906100b1565b90565b6100e2906100cd565b90565b6100ee906100d9565b9052565b9190610105905f602085019401906100e5565b565b3461013757610117366004610070565b61013361012261007f565b61012a610062565b918291826100f2565b0390f35b610068565b5f80fd5b90565b61014c81610140565b0361015357565b5f80fd5b9050359061016482610143565b565b9060208282031261017f5761017c915f01610157565b90565b61006c565b5f0190565b346101b7576101a161019c366004610166565b610326565b6101a9610062565b806101b381610184565b0390f35b610068565b6101c590610140565b9052565b91906101dc905f602085019401906101bc565b565b3461020e576101ee366004610070565b61020a6101f9610382565b610201610062565b918291826101c9565b0390f35b610068565b61021c906100a3565b90565b61022881610213565b0361022f57565b5f80fd5b905035906102408261021f565b565b5f80fd5b5f80fd5b5f80fd5b909182601f830112156102885781359167ffffffffffffffff831161028357602001926001830284011161027e57565b61024a565b610246565b610242565b916060838303126102da576102a4825f8501610233565b926102b28360208301610157565b92604082013567ffffffffffffffff81116102d5576102d1920161024e565b9091565b61013c565b61006c565b34610311576102fb6102f236600461028d565b9291909161082e565b610303610062565b8061030d81610184565b0390f35b610068565b5f80fd5b610323906100cd565b90565b61035d907f000000000000000000000000000000000000000000000000000000000000000090336103563061031a565b9192610b93565b565b5f90565b90565b61037a61037561037f92610363565b6100ae565b610140565b90565b61038a61035f565b506103945f610366565b90565b60209181520190565b5f7f416d6f756e74206d757374206265203e20300000000000000000000000000000910152565b6103d46012602092610397565b6103dd816103a0565b0190565b6103f69060208101905f8183039101526103c7565b90565b1561040057565b610408610062565b62461bcd60e51b81528061041e600482016103e1565b0390fd5b601f801991011690565b634e487b7160e01b5f52604160045260245ffd5b9061044a90610422565b810190811067ffffffffffffffff82111761046457604052565b61042c565b60e01b90565b9050519061047c82610143565b565b9060208282031261049757610494915f0161046f565b90565b61006c565b6104a590610213565b9052565b91906104bc905f6020850194019061049c565b565b6104c6610062565b3d5f823e3d90fd5b5f7f496e73756666696369656e74206c697175696469747900000000000000000000910152565b6105026016602092610397565b61050b816104ce565b0190565b6105249060208101905f8183039101526104f5565b90565b1561052e57565b610536610062565b62461bcd60e51b81528061054c6004820161050f565b0390fd5b610559906100b1565b90565b61056590610550565b90565b610571906100cd565b90565b90565b61058081610574565b0361058757565b5f80fd5b9050519061059882610577565b565b906020828203126105b3576105b0915f0161058b565b90565b61006c565b60209181520190565b90825f939282370152565b91906105e6816105df816105eb956105b8565b80956105c1565b610422565b0190565b919361062761063192969461061d61063e999761061360a088019a5f89019061049c565b602087019061049c565b60408501906101bc565b60608301906101bc565b60808185039101526105cc565b90565b60207f726e000000000000000000000000000000000000000000000000000000000000917f496e76616c696420666c617368206c6f616e2063616c6c6261636b20726574755f8201520152565b61069b6022604092610397565b6106a481610641565b0190565b6106bd9060208101905f81830391015261068e565b90565b156106c757565b6106cf610062565b62461bcd60e51b8152806106e5600482016106a8565b0390fd5b634e487b7160e01b5f52601160045260245ffd5b61070c61071291939293610140565b92610140565b9161071e838202610140565b92818404149015171561072d57565b6106e9565b90565b61074961074461074e92610732565b6100ae565b610140565b90565b634e487b7160e01b5f52601260045260245ffd5b61077161077791610140565b91610140565b908115610782570490565b610751565b61079661079c91939293610140565b92610140565b82018092116107a757565b6106e9565b5f7f466c617368206c6f616e206e6f74207265706169642077697468206665650000910152565b6107e0601e602092610397565b6107e9816107ac565b0190565b6108029060208101905f8183039101526107d3565b90565b1561080c57565b610814610062565b62461bcd60e51b81528061082a600482016107ed565b0390fd5b9261084b8261084561083f5f610366565b91610140565b116103f9565b6108ab60206108797f00000000000000000000000000000000000000000000000000000000000000006100d9565b6370a08231906108a061088b3061031a565b92610894610062565b95869485938493610469565b8352600483016104a9565b03915afa8015610b2b576020915f91610afe575b50936108de856108d76108d187610140565b91610140565b1015610527565b61090a7f0000000000000000000000000000000000000000000000000000000000000000878691610c06565b61093c6109377f439148f0bbc682ca079e46d6e2c2f0c1e3b820f1a291b069d8882abf8cf18dd99761055c565b610568565b6109955f6323e30c8b6109a033956109737f00000000000000000000000000000000000000000000000000000000000000006100d9565b988a9161097e610382565b909192610989610062565b9b8c9a8b998a98610469565b8852600488016105ef565b03925af1938415610af9576109cd6109c7610a30966109d3945f91610acb575b5092610574565b91610574565b146106c0565b60206109fe7f00000000000000000000000000000000000000000000000000000000000000006100d9565b6370a0823190610a25610a103061031a565b92610a19610062565b97889485938493610469565b8352600483016104a9565b03915afa8015610ac657610a84610a8f92610a7d610a66610a8994610a96985f91610a98575b5092610a60610382565b906106fd565b610a77670de0b6b3a7640000610735565b90610765565b9094610787565b610140565b91610140565b1015610805565b565b610ab9915060203d8111610abf575b610ab18183610440565b81019061047e565b5f610a56565b503d610aa7565b6104be565b610aec915060203d8111610af2575b610ae48183610440565b81019061059a565b5f6109c0565b503d610ada565b6104be565b610b1e9150823d8111610b24575b610b168183610440565b81019061047e565b5f6108bf565b503d610b0c565b6104be565b63ffffffff1690565b63ffffffff60e01b1690565b610b59610b54610b5e92610b30565b610469565b610b39565b90565b604090610b8a610b919496959396610b8060608401985f85019061049c565b602083019061049c565b01906101bc565b565b600492610bcd610be19593610bdc9394610bb46323b872dd92949192610b45565b93610bbd610062565b9788956020870190815201610b61565b60208201810382520383610440565b610c73565b565b916020610c04929493610bfd60408201965f83019061049c565b01906101bc565b565b90610c4d610c5293610c3e60049493610c2563a9059cbb919391610b45565b92610c2e610062565b9687946020860190815201610be3565b60208201810382520383610440565b610c73565b565b90565b610c6b610c66610c7092610c54565b6100ae565b610140565b90565b905f602091610c8061035f565b50610c8961035f565b50828151910182855af115610d1c573d5f5190610cae610ca85f610366565b91610140565b145f14610d025750610cbf816100d9565b3b610cd2610ccc5f610366565b91610140565b145b610cdb5750565b610ce7610cfe916100d9565b5f918291635274afe760e01b8352600483016104a9565b0390fd5b610d15610d0f6001610c57565b91610140565b1415610cd4565b6040513d5f823e3d90fdfea2646970667358221220757656f3e521e282218699021316add298b827ee19da8cc6a43fed96311105e364736f6c634300081c0033","linkReferences":{}},"methodIdentifiers":{"deposit(uint256)":"b6b55f25","flashLoan(address,uint256,bytes)":"e0232b42","getFee()":"ced72f87","loanToken()":"06d37817"},"id":48}